S01D00004763634170706C69636174696F6E7050524F4A43542E7372656344
S11300000C942A000C9447000C9447000C9447006D
S11300100C9447000C9447000C9447000C94470040
S11300200C9447000C9447000C9447000C94470030
S11300300C9447000C9447000C9447000C94470020
S11300400C9447000C9447000C9447000C94470010
S11300500C94470011241FBECFE5D8E0DEBFCDBF0E
S113006010E0A0E6B0E0ECE4FAE002C005900D92E6
S1130070A23BB107D9F720E0A2EBB0E001C01D928A
S1130080AC3BB207E1F70E9440020C9424050C94A7
S1130090000027B100249695879507949695879537
S11300A00794982F802D822B87B986B1887F86B9D3
S11300B086B1682B66B9379A089517B897B1892B1A
S11300C087B92FEF89EF90E0215080409040E1F70D
S11300D000C00000369A0895349BFECF84B125B148
S11300E090E0922B089541E050E062E070E082E0FD
S11300F090E00E9405038FE99FE00197F1F700C0AB
S1130100000040E050E062E070E082E090E00E9495
S113011005030895CF93C82F41E050E060E070E0FC
S113012082E090E00E9405036C2F70E083E090E091
S11301300E9478020E947300CF910895CF93C82F34
S113014040E050E060E070E082E090E00E9405034F
S11301506C2F70E083E090E00E9478020E947300AC
S1130160CF91089561E070E083E090E00E944F0237
S113017041E050E060E070E082E090E00E948D0297
S113018041E050E061E070E082E090E00E948D0286
S113019041E050E062E070E082E090E00E948D0275
S11301A040E050E061E070E082E090E00E940503EE
S11301B08FE39CE90197F1F700C0000081E00E9401
S11301C09E008FE99FE00197F1F700C0000088E3EB
S11301D00E949E009FEF20E782E0915020408040E3
S11301E0E1F700C000008CE00E949E009FEF20E732
S11301F082E0915020408040E1F700C0000086E09A
S11302000E949E009FEF20E782E0915020408040B2
S1130210E1F700C0000082E00E949E009FEF20E70B
S113022082E0915020408040E1F700C00000089532
S1130230CF93DF93EC018881882331F021960E94CB
S11302408A0089918111FBCFDF91CF9108950097A6
S113025019F0019731F00895862F80680E949E005E
S11302600895862F806C0E949E00089580E090E09F
S11302700E945D002FEF83EC99E021508040904074
S1130280E1F700C0000008950F931F93CF93DF930D
S113029002EB10E0C0E0D0E0CE010E945D000E94BD
S11302A06C00F801819391938F0181E00E949E007C
S11302B08FE99FE00197F1F700C000002196C53057
S11302C0D10551F7DF91CF911F910F91089580913E
S11302D0B2009091B300009789F58091B400909199
S11302E0B5008D3C914009F0B1C08091B600909169
S11302F0B700892B09F0A2C08091B8009091B90091
S1130300892B09F09BC08091BA009091BB00892B86
S113031009F094C00E94ED0308958091B800909173
S1130320B900892B09F0ABC08091BA009091BB0051
S1130330892B09F0A4C00E94B50308958F3F934010
S113034009F09DC08091B4009091B5008F3F934017
S113035009F084C08091B6009091B7008F3F93401C
S113036009F085C08091B8009091B900892B09F0FB
S11303707EC08091BA009091BB008F3F934009F0FA
S113038076C00E941E0408958091B8009091B9002F
S1130390892B19F58091BA009091BB008F3F93404F
S11303A0E1F40E94690408958091B6009091B70029
S11303B0892B09F064C08091B8009091B900892B11
S11303C009F05DC08091BA009091BB008F3F9340CB
S11303D009F055C00E94A10408958091B60090913F
S11303E0B7008F3F934009F04AC08091B8009091C4
S11303F0B9008F3F934009F042C08091BA009091B8
S1130400BB008F3F9340D9F50E94D9040895892BEE
S1130410B1F58091B6009091B700892B81F5809158
S1130420B8009091B900892B51F58091BA00909150
S1130430BB00892B21F50E947D0308958091B600AD
S11304409091B7008D3C9140D1F467CF8091B40076
S11304509091B5008F3F934091F4A6CF8091B40062
S11304609091B5008F3F23E0920789F6B6CF809133
S1130470B6009091B700892B09F486CFAECF0895CA
S113048067E070E081E090E00E9449000E94B200C1
S11304900E9436010E9444010E946701F9CF813015
S11304A0910589F01CF4892B39F008958230910567
S11304B089F00397B1F0089581E0672B09F480E097
S11304C081958ABB089581E0672B09F480E08195CA
S11304D087BB089581E0672B09F480E0819584BB94
S11304E0089581E0672B09F480E0819581BB08952C
S11304F08130910561F01CF4892B39F00895823024
S1130500910539F0039739F008956BBB089568BBE2
S1130510089565BB089562BB0895452BC9F18130E8
S11305209105A9F01CF4892B39F0089582309105C6
S1130530C9F0039711F108952AB381E090E002C055
S1130540880F991F6A95E2F7822B8ABB089527B317
S113055081E090E002C0880F991F6A95E2F7822B30
S113056087BB089524B381E090E002C0880F991FEF
S11305706A95E2F7822B84BB089521B381E090E071
S113058002C0880F991F6A95E2F7822B81BB0895F8
S113059081309105B1F01CF4892B39F00895823033
S11305A09105D9F0039729F108952AB381E090E0E9
S11305B002C0880F991F6A95E2F7809582238ABB4F
S11305C0089527B381E090E002C0880F991F6A95CF
S11305D0E2F78095822387BB089524B381E090E0FD
S11305E002C0880F991F6A95E2F78095822384BB25
S11305F0089521B381E090E002C0880F991F6A95A5
S1130600E2F78095822381BB0895452BC9F181309F
S11306109105A9F01CF4892B39F0089582309105D5
S1130620C9F0039711F108952BB381E090E002C063
S1130630880F991F6A95E2F7822B8BBB089528B324
S113064081E090E002C0880F991F6A95E2F7822B3F
S113065088BB089525B381E090E002C0880F991FFC
S11306606A95E2F7822B85BB089522B381E090E07E
S113067002C0880F991F6A95E2F7822B82BB089506
S113068081309105B1F01CF4892B39F00895823042
S11306909105D9F0039729F108952BB381E090E0F7
S11306A002C0880F991F6A95E2F7809582238BBB5D
S11306B0089528B381E090E002C0880F991F6A95DD
S11306C0E2F78095822388BB089525B381E090E00A
S11306D002C0880F991F6A95E2F78095822385BB33
S11306E0089522B381E090E002C0880F991F6A95B3
S11306F0E2F78095822382BB0895CF93DF93CDB731
S1130700DEB729970FB6F894DEBF0FBECDBF89E0E0
S1130710E0E6F0E0DE01119601900D928A95E1F792
S113072061E070E080E090E00E942701CE01019634
S11307300E9418012FEF83ED90E3215080409040F8
S1130740E1F700C0000081E00E949E008FE99CE870
S11307500197F1F700C0000029960FB6F894DEBFA8
S11307600FBECDBFDF91CF910895CF93DF93CDB767
S1130770DEB72E970FB6F894DEBF0FBECDBF8EE066
S1130780E9E6F0E0DE01119601900D928A95E1F719
S113079061E070E080E090E00E942701CE010196C4
S11307A00E9418012FEF89E698E121508040904083
S11307B0E1F700C0000081E00E949E008FED9EE200
S11307C00197F1F700C000002E960FB6F894DEBF33
S11307D00FBECDBFDF91CF910895CF93DF9300D0AB
S11307E000D0CDB7DEB789E59FE69A83898385E794
S11307F090E09C838B8365E070E080E090E00E9451
S11308002701CE0101960E9418012FEF89E698E195
S1130810215080409040E1F700C0000081E00E9438
S11308209E008FED9EE20197F1F700C000000F904B
S11308300F900F900F90DF91CF910895CF93DF9396
S1130840CDB7DEB763970FB6F894DEBF0FBECDBF4A
S113085088E0E7E7F0E0DE01119601900D928A95B9
S1130860E1F766E070E080E090E00E942701CE01AD
S113087001960E9418018BE0EFE7F0E0DE01199683
S113088001900D928A95E1F764E070E081E090E0D8
S11308900E942701CE0109960E9418012FEF83EDD3
S11308A090E3215080409040E1F700C0000081E0D7
S11308B00E949E008FE39CE90197F1F700C00000BD
S11308C063960FB6F894DEBF0FBECDBFDF91CF9114
S11308D00895CF93DF93CDB7DEB72B970FB6F89477
S11308E0DEBF0FBECDBF8BE0EFE7F0E0DE01119677
S11308F001900D928A95E1F761E070E081E090E06B
S11309000E942701CE0101960E9418012FEF89E66B
S113091098E1215080409040E1F700C0000081E060
S11309200E949E008FED9EE20197F1F700C0000047
S11309302B960FB6F894DEBF0FBECDBFDF91CF91DB
S11309400895CF93DF93CDB7DEB760970FB6F894D1
S1130950DEBF0FBECDBF80E1EAE8F0E0DE01119614
S113096001900D928A95E1F761E070E080E090E0FB
S11309700E942701CE0101960E9418012FEF89E6FB
S113098098E1215080409040E1F700C0000081E0F0
S11309900E949E008FED9EE20197F1F700C00000D7
S11309A060960FB6F894DEBF0FBECDBFDF91CF9136
S11309B00895CF93DF93CDB7DEB768970FB6F89459
S11309C0DEBF0FBECDBF8BE0EAE9F0E0DE01119699
S11309D001900D928A95E1F763E070E080E090E089
S11309E00E942701CE0101960E9418018DE0E5EADC
S11309F0F0E0DE011C9601900D928A95E1F762E029
S1130A0070E081E090E00E942701CE010C960E94E4
S1130A1018012FEF89E698E1215080409040E1F7DA
S1130A2000C0000081E00E949E008FEB9DE50197CD
S1130A30F1F700C0000068960FB6F894DEBF0FBE51
S10F0A40CDBFDF91CF910895F894FFCF53
S1130A4C476F6F64204A6F62004920616D205761C3
S1130A5C746368696E67005265616C6C7920004937
S1130A6C206C6F766520796F750054686973206902
S1130A7C7320417765736F6D65004920686F7065ED
S1130A8C20796F750061206861707079206C6966DB
S1050A9C6500EF
S9030000FC
